:040000008031102813
:10000800803120007F08F0000B1D0D280B119B305C
:1000180095007008FF00090080311228FB01AA0131
:10002800AB01AC01AD01AE019B308400813085008D
:1000380020308600003087000A308131A521200059
:100048008031DC28E830F1000330F2007A08F4004F
:100058007908F30081311321803171082000B10043
:100068003108FB00E830F1000330F2007A08F400B0
:100078007908F3008131472180317208FA0071084C
:10008800F9006430F1000030F2007A08F4007908D1
:10009800F30081311321803171082000B10031084B
:1000A800AC006430F1000030F2007A08F4007908FE
:1000B800F3008131472180317208FA007108F90094
:1000C8000A30F1000030F2007A08F4007908F300F1
:1000D80081311321803171082000B1003108AD0051
:1000E8000A30F1000030F2007A08F4007908F300D1
:1000F80081314721803171082000B1003108AE00FC
:1001080022008E150E167B08203E86008701010806
:100118008131732180310D302000B200FB30B100F5
:10012800B10B9428B20B9428003222008E110E16BF
:1001380020002C08203E86008701010881317321A8
:1001480080310D302000B200FB30B100B10BAA287D
:10015800B20BAA28003222008E150E1220002D089C
:10016800203E8600870101088131732180310D30DE
:100178002000B200FB30B100B10BC028B20BC02880
:10018800003222008E110E1220002E08203E86001A
:10019800870101088131732180310D302000B200C0
:1001A800FB30B100B10BD628B20BD62800320800BC
:1001B800210095129511073095049B302000950079
:1001C8008B160B178B1721008E0122008E011E3013
:1001D8002000AF000030B0000130AA070030AB3D6E
:1001E80000302B02643003192A02031C0529AA01D6
:1001F800AB012F083004031905290130AF02003084
:10020800B03B3008FA002F08F900803126208031F1
:1002180020002F083004031DF0281E30ED28F601B9
:10022800F7017108720403194229F801F80AF21B50
:1002380027290130F135F20D890B1E290130F5000F
:100248007508F8071B290130F635F70D890B2829A1
:1002580072087402031D322971087302031C3929BC
:100268007108F3027208F43B76140130F236F10C8F
:10027800890B3A290130F802031D27297708F20073
:100288007608F10008007108720403196E29F60156
:10029800F60AF21B59290130F135F20D890B502964
:1002A8000130F5007508F6074D2972087402031D20
:1002B8005F2971087302031C65297108F30272082B
:1002C800F43B0130F236F10C890B66290130F60255
:1002D800031D59297408F2007308F1000800F200A0
:1002E80022008E138E128E138E12F30108307302C1
:1002F800031898297208F100730A8329F136890BCB
:100308008229711C8A2922000E178C2922000E13BB
:100318008E178E178E138E130130F1007108F307B4
:1003280008307302031C7E298E168E1608000334CB
:100338009F3425340D349934493441341F34013401
:0E0348000934FE0012001E00FE0BA629003430
:020000040001F9
:04000E00A2FFFFFF4F
:00000001FF
