:040000008031112812
:10000800803120007F08F0008B1A0B1D0D288131EC
:10001800DB2170082000FF00090080311328FB0154
:10002800AA01AB01AC01AD01AE01C830840081303A
:10003800850020308600003087000A308131E221B7
:1000480020008031D928E830F1000330F2007A0826
:10005800F4007908F30081310D2180317108200006
:10006800B2003208FB00E830F1000330F2007A08F1
:10007800F4007908F3008131412180317208FA00D7
:100088007108F9006430F1000030F2007A08F400D9
:100098007908F30081310D21803171082000B20008
:1000A8003208AC006430F1000030F2007A08F40045
:1000B8007908F3008131412180317208FA00710812
:1000C800F9000A30F1000030F2007A08F4007908EB
:1000D800F30081310D21803171082000B20032080F
:1000E800AD000A30F1000030F2007A08F400790817
:1000F800F30081314121803171082000B2003208BB
:10010800AE0022008E150E167B08203E8600870161
:10011800010881316D21803107302000B3007D3026
:10012800B200B20B9528B30B952822008E110E163B
:1001380020002C08203E86008701010881316D21AE
:10014800803107302000B3007D30B200B20BAA28FE
:10015800B30BAA2822008E150E1220002D08203E6F
:1001680086008701010881316D2180310730200028
:10017800B3007D30B200B20BBF28B30BBF282200FA
:100188008E110E1220002E08203E860087010108DD
:1001980081316D21803107302000B3007D30B200FD
:1001A800B20BD428B30BD42808008131D221803176
:1001B80021008E0122008E011E302000AF00003089
:1001C800B0008B170B170130AA070030AB3D003089
:1001D8002B02323003192A02031CFC28AA01AB01A6
:1001E8002F0830040319FC280130AF020030B03B5F
:1001F8003008FA002F08F9008031272080312000CC
:100208002F083004031DE7281E30AF000030B0006F
:10021800E728F601F7017108720403193C29F8016F
:10022800F80AF21B21290130F135F20D890B182942
:100238000130F5007508F80715290130F635F70D76
:10024800890B222972087402031D2C297108730274
:10025800031C33297108F3027208F43B7614013049
:10026800F236F10C890B34290130F802031D2129DB
:100278007708F2007608F100080071087204031983
:100288006829F601F60AF21B53290130F135F20DFF
:10029800890B4A290130F5007508F60747297208C5
:1002A8007402031D592971087302031C5F29710820
:1002B800F3027208F43B0130F236F10C890B602925
:1002C8000130F602031D53297408F2007308F10087
:1002D8000800F20022008E138E128E138E12F30184
:1002E80008307302031892297208F100730A7D29F5
:1002F800F136890B7C29711C842922000E17862966
:1003080022000E138E178E178E138E130130F100F4
:100318007108F30708307302031C78298E168E16AD
:10032800080022008C013F3021008C001730230088
:100338008C0024008C0122008D01F03021008D00FA
:10034800F03023008D0024008D0122008E01E7305B
:1003580021008E00C73023008E0024008E0121006A
:10036800951722009D019E01080021001508C0393B
:10037800373895000330200095000330F1007108EC
:10038800B1000B118B16080003349F3425340D344B
:100398009934493441341F34013409348131E82116
:1003A80081318131952181318131B92108000B1DBD
:1003B80008002000310895000B110800FE0012000B
:1003C8001E00FE0BE32900346A30210099009A01CF
:0403D8009801080080
:020000040001F9
:04000E00E4FFFFDE2E
:00000001FF
